:100000000A128A111C2F00308A000408840A820711
:1000100000344C34593443344134203453344F3455
:06002000463454340034A4
:100E380083010A128A11CA2F212F831203138C1ED1
:100E4800262F272F212F282F1A082A2F080083162C
:100E580003138717071381309900243098009030C6
:100E6800831203139800080002300A128A116C27B3
:100E78000A128A1128300A128A116C270A128A115A
:100E88000C300A128A116C270A128A110800F40021
:100E98005E2F740884000A128A1103200A128A112C
:100EA8000A128A119B270A128A110130F30073086B
:100EB800F4075E2F740884000A128A1103200A12AC
:100EC8008A110038031D692F6A2F4D2F6B2F0800D8
:100ED800F2007208F039831203138800081188158C
:100EE8002130F1007630F000F00B782FF10B782FDD
:100EF80064008312031388117208F0000330031092
:100F0800F00DFF3E031D832F0310700DF03988008C
:100F1800081188152130F1007630F000F00B922F7F
:100F2800F10B922F64008312031388110800F2005A
:100F38007208F039831203138800081588152130C8
:100F4800F1007630F000F00BA72FF10BA72F64000B
:100F58008312031388117208F00003300310F00D98
:100F6800FF3E031DB22F0310700DF03988000815DD
:100F780088152130F1007630F000F00BC12FF10B0D
:100F8800C12F64008312031388110800831603130A
:100F980088018312031388010A128A1138270A125A
:100FA8008A110A128A112B270A128A1180300A1212
:100FB8008A116C270A128A1101300A128A114B27EA
:100FC8000A128A11E72F0A128A1120270A128A1197
:100FD800F5007508F600C0300A128A116C270A124B
:100FE8008A1176080A128A119B270A128A11E72F9A
:080FF800E72F0A128A110028FC
:02400E003A3F37
:00000001FF
